{
  "contractName": "ArtStore",
  "abi": [
    {
      "inputs": [],
      "payable": false,
      "stateMutability": "nonpayable",
      "type": "constructor"
    },
    {
      "anonymous": false,
      "inputs": [
        {
          "indexed": false,
          "internalType": "uint256",
          "name": "itemId",
          "type": "uint256"
        },
        {
          "indexed": false,
          "internalType": "string",
          "name": "itemName",
          "type": "string"
        },
        {
          "indexed": false,
          "internalType": "uint256",
          "name": "itemPrice",
          "type": "uint256"
        },
        {
          "indexed": false,
          "internalType": "string",
          "name": "itemDescription",
          "type": "string"
        },
        {
          "indexed": false,
          "internalType": "string",
          "name": "ipfsHash",
          "type": "string"
        },
        {
          "indexed": false,
          "internalType": "address payable",
          "name": "owner",
          "type": "address"
        },
        {
          "indexed": false,
          "internalType": "string",
          "name": "buyers",
          "type": "string"
        },
        {
          "indexed": false,
          "internalType": "address",
          "name": "invader",
          "type": "address"
        },
        {
          "indexed": false,
          "internalType": "string",
          "name": "notifMsg",
          "type": "string"
        }
      ],
      "name": "ItemAdded",
      "type": "event"
    },
    {
      "anonymous": false,
      "inputs": [
        {
          "indexed": false,
          "internalType": "uint256",
          "name": "itemId",
          "type": "uint256"
        },
        {
          "indexed": false,
          "internalType": "string",
          "name": "itemName",
          "type": "string"
        },
        {
          "indexed": false,
          "internalType": "uint256",
          "name": "itemPrice",
          "type": "uint256"
        },
        {
          "indexed": false,
          "internalType": "string",
          "name": "itemDescription",
          "type": "string"
        },
        {
          "indexed": false,
          "internalType": "string",
          "name": "ipfsHash",
          "type": "string"
        },
        {
          "indexed": false,
          "internalType": "address payable",
          "name": "owner",
          "type": "address"
        },
        {
          "indexed": false,
          "internalType": "string",
          "name": "buyers",
          "type": "string"
        },
        {
          "indexed": false,
          "internalType": "address",
          "name": "invader",
          "type": "address"
        },
        {
          "indexed": false,
          "internalType": "string",
          "name": "notifMsg",
          "type": "string"
        }
      ],
      "name": "ItemEdited",
      "type": "event"
    },
    {
      "anonymous": false,
      "inputs": [
        {
          "indexed": false,
          "internalType": "uint256",
          "name": "itemId",
          "type": "uint256"
        },
        {
          "indexed": false,
          "internalType": "string",
          "name": "itemName",
          "type": "string"
        },
        {
          "indexed": false,
          "internalType": "uint256",
          "name": "itemPrice",
          "type": "uint256"
        },
        {
          "indexed": false,
          "internalType": "string",
          "name": "itemDescription",
          "type": "string"
        },
        {
          "indexed": false,
          "internalType": "string",
          "name": "ipfsHash",
          "type": "string"
        },
        {
          "indexed": false,
          "internalType": "address payable",
          "name": "owner",
          "type": "address"
        },
        {
          "indexed": false,
          "internalType": "string",
          "name": "buyers",
          "type": "string"
        },
        {
          "indexed": false,
          "internalType": "address",
          "name": "invader",
          "type": "address"
        },
        {
          "indexed": false,
          "internalType": "string",
          "name": "notifMsg",
          "type": "string"
        }
      ],
      "name": "ItemPurchased",
      "type": "event"
    },
    {
      "constant": true,
      "inputs": [],
      "name": "itemCount",
      "outputs": [
        {
          "internalType": "uint256",
          "name": "",
          "type": "uint256"
        }
      ],
      "payable": false,
      "stateMutability": "view",
      "type": "function"
    },
    {
      "constant": true,
      "inputs": [],
      "name": "itemName",
      "outputs": [
        {
          "internalType": "string",
          "name": "",
          "type": "string"
        }
      ],
      "payable": false,
      "stateMutability": "view",
      "type": "function"
    },
    {
      "constant": true,
      "inputs": [
        {
          "internalType": "uint256",
          "name": "",
          "type": "uint256"
        }
      ],
      "name": "items",
      "outputs": [
        {
          "internalType": "uint256",
          "name": "itemId",
          "type": "uint256"
        },
        {
          "internalType": "string",
          "name": "itemName",
          "type": "string"
        },
        {
          "internalType": "uint256",
          "name": "itemPrice",
          "type": "uint256"
        },
        {
          "internalType": "string",
          "name": "itemDescription",
          "type": "string"
        },
        {
          "internalType": "string",
          "name": "ipfsHash",
          "type": "string"
        },
        {
          "internalType": "address payable",
          "name": "owner",
          "type": "address"
        },
        {
          "internalType": "string",
          "name": "buyers",
          "type": "string"
        },
        {
          "internalType": "address",
          "name": "invader",
          "type": "address"
        },
        {
          "internalType": "string",
          "name": "notifMsg",
          "type": "string"
        }
      ],
      "payable": false,
      "stateMutability": "view",
      "type": "function"
    },
    {
      "constant": false,
      "inputs": [
        {
          "internalType": "string",
          "name": "_itemName",
          "type": "string"
        },
        {
          "internalType": "uint256",
          "name": "_itemPrice",
          "type": "uint256"
        },
        {
          "internalType": "string",
          "name": "_itemDescription",
          "type": "string"
        },
        {
          "internalType": "string",
          "name": "_ipfsHash",
          "type": "string"
        }
      ],
      "name": "addItem",
      "outputs": [],
      "payable": false,
      "stateMutability": "nonpayable",
      "type": "function"
    },
    {
      "constant": false,
      "inputs": [
        {
          "internalType": "uint256",
          "name": "_itemId",
          "type": "uint256"
        }
      ],
      "name": "itemPurchase",
      "outputs": [],
      "payable": true,
      "stateMutability": "payable",
      "type": "function"
    },
    {
      "constant": false,
      "inputs": [
        {
          "internalType": "uint256",
          "name": "_itemId",
          "type": "uint256"
        }
      ],
      "name": "editItemCheck",
      "outputs": [],
      "payable": false,
      "stateMutability": "nonpayable",
      "type": "function"
    }
  ],
  "bytecode": "0x608060405260006001553480156200001657600080fd5b506040518060400160405280600e81526020017f50726f70657274792053746f726500000000000000000000000000000000000081525060009080519060200190620000649291906200006b565b506200011a565b828054600181600116156101000203166002900490600052602060002090601f016020900481019282601f10620000ae57805160ff1916838001178555620000df565b82800160010185558215620000df579182015b82811115620000de578251825591602001919060010190620000c1565b5b509050620000ee9190620000f2565b5090565b6200011791905b8082111562000113576000816000905550600101620000f9565b5090565b90565b612879806200012a6000396000f3fe6080604052600436106100555760003560e01c80630e0baf041461005a5780631ec43063146100885780631f9a6d16146100c357806340401fea146102c35780636bfb0d0114610353578063bfb231d21461037e575b600080fd5b6100866004803603602081101561007057600080fd5b8101908080359060200190929190505050610656565b005b34801561009457600080fd5b506100c1600480360360208110156100ab57600080fd5b81019080803590602001909291905050506113bb565b005b3480156100cf57600080fd5b506102c1600480360360808110156100e657600080fd5b810190808035906020019064010000000081111561010357600080fd5b82018360208201111561011557600080fd5b8035906020019184600183028401116401000000008311171561013757600080fd5b91908080601f016020809104026020016040519081016040528093929190818152602001838380828437600081840152601f19601f82011690508083019250505050505050919291929080359060200190929190803590602001906401000000008111156101a457600080fd5b8201836020820111156101b657600080fd5b803590602001918460018302840111640100000000831117156101d857600080fd5b91908080601f016020809104026020016040519081016040528093929190818152602001838380828437600081840152601f19601f8201169050808301925050505050505091929192908035906020019064010000000081111561023b57600080fd5b82018360208201111561024d57600080fd5b8035906020019184600183028401116401000000008311171561026f57600080fd5b91908080601f016020809104026020016040519081016040528093929190818152602001838380828437600081840152601f19601f820116905080830192505050505050509192919290505050611daf565b005b3480156102cf57600080fd5b506102d861226c565b6040518080602001828103825283818151815260200191508051906020019080838360005b838110156103185780820151818401526020810190506102fd565b50505050905090810190601f1680156103455780820380516001836020036101000a031916815260200191505b509250505060405180910390f35b34801561035f57600080fd5b5061036861230a565b6040518082815260200191505060405180910390f35b34801561038a57600080fd5b506103b7600480360360208110156103a157600080fd5b8101908080359060200190929190505050612310565b604051808a81526020018060200189815260200180602001806020018873ffffffffffffffffffffffffffffffffffffffff1673ffffffffffffffffffffffffffffffffffffffff168152602001806020018773ffffffffffffffffffffffffffffffffffffffff1673ffffffffffffffffffffffffffffffffffffffff1681526020018060200186810386528e818151815260200191508051906020019080838360005b8381101561047757808201518184015260208101905061045c565b50505050905090810190601f1680156104a45780820380516001836020036101000a031916815260200191505b5086810385528c818151815260200191508051906020019080838360005b838110156104dd5780820151818401526020810190506104c2565b50505050905090810190601f16801561050a5780820380516001836020036101000a031916815260200191505b5086810384528b818151815260200191508051906020019080838360005b83811015610543578082015181840152602081019050610528565b50505050905090810190601f1680156105705780820380516001836020036101000a031916815260200191505b50868103835289818151815260200191508051906020019080838360005b838110156105a957808201518184015260208101905061058e565b50505050905090810190601f1680156105d65780820380516001836020036101000a031916815260200191505b50868103825287818151815260200191508051906020019080838360005b8381101561060f5780820151818401526020810190506105f4565b50505050905090810190601f16801561063c5780820380516001836020036101000a031916815260200191505b509e50505050505050505050505050505060405180910390f35b61065e612696565b600260008381526020019081526020016000206040518061012001604052908160008201548152602001600182018054600181600116156101000203166002900480601f0160208091040260200160405190810160405280929190818152602001828054600181600116156101000203166002900480156107205780601f106106f557610100808354040283529160200191610720565b820191906000526020600020905b81548152906001019060200180831161070357829003601f168201915b5050505050815260200160028201548152602001600382018054600181600116156101000203166002900480601f0160208091040260200160405190810160405280929190818152602001828054600181600116156101000203166002900480156107cc5780601f106107a1576101008083540402835291602001916107cc565b820191906000526020600020905b8154815290600101906020018083116107af57829003601f168201915b50505050508152602001600482018054600181600116156101000203166002900480601f01602080910402602001604051908101604052809291908181526020018280546001816001161561010002031660029004801561086e5780601f106108435761010080835404028352916020019161086e565b820191906000526020600020905b81548152906001019060200180831161085157829003601f168201915b505050505081526020016005820160009054906101000a900473ffffffffffffffffffffffffffffffffffffffff1673ffffffffffffffffffffffffffffffffffffffff1673ffffffffffffffffffffffffffffffffffffffff168152602001600682018054600181600116156101000203166002900480601f0160208091040260200160405190810160405280929190818152602001828054600181600116156101000203166002900480156109665780601f1061093b57610100808354040283529160200191610966565b820191906000526020600020905b81548152906001019060200180831161094957829003601f168201915b505050505081526020016007820160009054906101000a900473ffffffffffffffffffffffffffffffffffffffff1673ffffffffffffffffffffffffffffffffffffffff1673ffffffffffffffffffffffffffffffffffffffff168152602001600882018054600181600116156101000203166002900480601f016020809104026020016040519081016040528092919081815260200182805460018160011615610100020316600290048015610a5e5780601f10610a3357610100808354040283529160200191610a5e565b820191906000526020600020905b815481529060010190602001808311610a4157829003601f168201915b505050505081525050905060008160a00151905060008260000151118015610a8c5750600154826000015111155b610afe576040517f08c379a000000000000000000000000000000000000000000000000000000000815260040180806020018281038252600e8152602001807f696c6c6967616c20696e6465782e00000000000000000000000000000000000081525060200191505060405180910390fd5b8160400151341015610b5b576040517f08c379a00000000000000000000000000000000000000000000000000000000081526004018080602001828103825260258152602001806127b46025913960400191505060405180910390fd5b3373ffffffffffffffffffffffffffffffffffffffff168173ffffffffffffffffffffffffffffffffffffffff161415610bfd576040517f08c379a00000000000000000000000000000000000000000000000000000000081526004018080602001828103825260158152602001807f6f776e65727368697020697320696e76616c69642e000000000000000000000081525060200191505060405180910390fd5b338260a0019073ffffffffffffffffffffffffffffffffffffffff16908173ffffffffffffffffffffffffffffffffffffffff168152505060008173ffffffffffffffffffffffffffffffffffffffff1660001b905060606040518060400160405280601081526020017f303132333435363738396162636465660000000000000000000000000000000081525090506060602a6040519080825280601f01601f191660200182016040528015610cc35781602001600182028038833980820191505090505b5090507f300000000000000000000000000000000000000000000000000000000000000081600081518110610cf457fe5b60200101907effffffffffffffffffffffffffffffffffffffffffffffffffffffffffffff1916908160001a9053507f780000000000000000000000000000000000000000000000000000000000000081600181518110610d5157fe5b60200101907effffffffffffffffffffffffffffffffffffffffffffffffffffffffffffff1916908160001a90535060008090505b6014811015610ea85782600485600c840160208110610da157fe5b1a60f81b7effffffffffffffffffffffffffffffffffffffffffffffffffffffffffffff1916901c60f81c60ff1681518110610dd957fe5b602001015160f81c60f81b826002830260020181518110610df657fe5b60200101907effffffffffffffffffffffffffffffffffffffffffffffffffffffffffffff1916908160001a90535082600f60f81b85600c840160208110610e3a57fe5b1a60f81b1660f81c60ff1681518110610e4f57fe5b602001015160f81c60f81b826002830260030181518110610e6c57fe5b60200101907effffffffffffffffffffffffffffffffffffffffffffffffffffffffffffff1916908160001a9053508080600101915050610d86565b508460c00151816040516020018083805190602001908083835b60208310610ee55780518252602082019150602081019050602083039250610ec2565b6001836020036101000a038019825116818451168082178552505050505050905001807f200000000000000000000000000000000000000000000000000000000000000081525060010182805190602001908083835b60208310610f5e5780518252602082019150602081019050602083039250610f3b565b6001836020036101000a038019825116818451168082178552505050505050905001925050506040516020818303038152906040528560c001819052508460026000888152602001908152602001600020600082015181600001556020820151816001019080519060200190610fd592919061270e565b50604082015181600201556060820151816003019080519060200190610ffc92919061270e565b50608082015181600401908051906020019061101992919061270e565b5060a08201518160050160006101000a81548173ffffffffffffffffffffffffffffffffffffffff021916908373ffffffffffffffffffffffffffffffffffffffff16021790555060c082015181600601908051906020019061107d92919061270e565b5060e08201518160070160006101000a81548173ffffffffffffffffffffffffffffffffffffffff021916908373ffffffffffffffffffffffffffffffffffffffff1602179055506101008201518160080190805190602001906110e292919061270e565b509050508373ffffffffffffffffffffffffffffffffffffffff166108fc349081150290604051600060405180830381858888f1935050505015801561112c573d6000803e3d6000fd5b507f83ba175065efd6b5b71268fb2d089c47768362f9cc96de64b08904f151e706856001548660200151876040015188606001518960800151338b60c001516000604051808981526020018060200188815260200180602001806020018773ffffffffffffffffffffffffffffffffffffffff1673ffffffffffffffffffffffffffffffffffffffff168152602001806020018673ffffffffffffffffffffffffffffffffffffffff1673ffffffffffffffffffffffffffffffffffffffff1681526020018060200186810386528d818151815260200191508051906020019080838360005b8381101561122d578082015181840152602081019050611212565b50505050905090810190601f16801561125a5780820380516001836020036101000a031916815260200191505b5086810385528b818151815260200191508051906020019080838360005b83811015611293578082015181840152602081019050611278565b50505050905090810190601f1680156112c05780820380516001836020036101000a031916815260200191505b5086810384528a818151815260200191508051906020019080838360005b838110156112f95780820151818401526020810190506112de565b50505050905090810190601f1680156113265780820380516001836020036101000a031916815260200191505b50868103835288818151815260200191508051906020019080838360005b8381101561135f578082015181840152602081019050611344565b50505050905090810190601f16801561138c5780820380516001836020036101000a031916815260200191505b508681038252600081526020016020019d505050505050505050505050505060405180910390a1505050505050565b6113c3612696565b600260008381526020019081526020016000206040518061012001604052908160008201548152602001600182018054600181600116156101000203166002900480601f0160208091040260200160405190810160405280929190818152602001828054600181600116156101000203166002900480156114855780601f1061145a57610100808354040283529160200191611485565b820191906000526020600020905b81548152906001019060200180831161146857829003601f168201915b5050505050815260200160028201548152602001600382018054600181600116156101000203166002900480601f0160208091040260200160405190810160405280929190818152602001828054600181600116156101000203166002900480156115315780601f1061150657610100808354040283529160200191611531565b820191906000526020600020905b81548152906001019060200180831161151457829003601f168201915b50505050508152602001600482018054600181600116156101000203166002900480601f0160208091040260200160405190810160405280929190818152602001828054600181600116156101000203166002900480156115d35780601f106115a8576101008083540402835291602001916115d3565b820191906000526020600020905b8154815290600101906020018083116115b657829003601f168201915b505050505081526020016005820160009054906101000a900473ffffffffffffffffffffffffffffffffffffffff1673ffffffffffffffffffffffffffffffffffffffff1673ffffffffffffffffffffffffffffffffffffffff168152602001600682018054600181600116156101000203166002900480601f0160208091040260200160405190810160405280929190818152602001828054600181600116156101000203166002900480156116cb5780601f106116a0576101008083540402835291602001916116cb565b820191906000526020600020905b8154815290600101906020018083116116ae57829003601f168201915b505050505081526020016007820160009054906101000a900473ffffffffffffffffffffffffffffffffffffffff1673ffffffffffffffffffffffffffffffffffffffff1673ffffffffffffffffffffffffffffffffffffffff168152602001600882018054600181600116156101000203166002900480601f0160208091040260200160405190810160405280929190818152602001828054600181600116156101000203166002900480156117c35780601f10611798576101008083540402835291602001916117c3565b820191906000526020600020905b8154815290600101906020018083116117a657829003601f168201915b505050505081525050905060008160a0015190503373ffffffffffffffffffffffffffffffffffffffff168173ffffffffffffffffffffffffffffffffffffffff161461186957338260e0019073ffffffffffffffffffffffffffffffffffffffff16908173ffffffffffffffffffffffffffffffffffffffff1681525050604051806060016040528060238152602001612822602391398261010001819052506118e2565b60008260e0019073ffffffffffffffffffffffffffffffffffffffff16908173ffffffffffffffffffffffffffffffffffffffff16815250506040518060400160405280601781526020017f4f776e65722075706461746564207468652070726963650000000000000000008152508261010001819052505b60405180610120016040528083600001518152602001836020015181526020018360400151815260200183606001518152602001836080015181526020018360a0015173ffffffffffffffffffffffffffffffffffffffff1681526020018360c0015181526020018360e0015173ffffffffffffffffffffffffffffffffffffffff168152602001836101000151815250600260008581526020019081526020016000206000820151816000015560208201518160010190805190602001906119ac92919061270e565b506040820151816002015560608201518160030190805190602001906119d392919061270e565b5060808201518160040190805190602001906119f092919061270e565b5060a08201518160050160006101000a81548173ffffffffffffffffffffffffffffffffffffffff021916908373ffffffffffffffffffffffffffffffffffffffff16021790555060c0820151816006019080519060200190611a5492919061270e565b5060e08201518160070160006101000a81548173ffffffffffffffffffffffffffffffffffffffff021916908373ffffffffffffffffffffffffffffffffffffffff160217905550610100820151816008019080519060200190611ab992919061270e565b509050507f2447d09753788fb4ce3b65da334404eb4257bf904cdc82042ec8155518ebc802826000015183602001518460400151856060015186608001518760a001518860c001518960e001518a6101000151604051808a81526020018060200189815260200180602001806020018873ffffffffffffffffffffffffffffffffffffffff1673ffffffffffffffffffffffffffffffffffffffff168152602001806020018773ffffffffffffffffffffffffffffffffffffffff1673ffffffffffffffffffffffffffffffffffffffff1681526020018060200186810386528e818151815260200191508051906020019080838360005b83811015611bcc578082015181840152602081019050611bb1565b50505050905090810190601f168015611bf95780820380516001836020036101000a031916815260200191505b5086810385528c818151815260200191508051906020019080838360005b83811015611c32578082015181840152602081019050611c17565b50505050905090810190601f168015611c5f5780820380516001836020036101000a031916815260200191505b5086810384528b818151815260200191508051906020019080838360005b83811015611c98578082015181840152602081019050611c7d565b50505050905090810190601f168015611cc55780820380516001836020036101000a031916815260200191505b50868103835289818151815260200191508051906020019080838360005b83811015611cfe578082015181840152602081019050611ce3565b50505050905090810190601f168015611d2b5780820380516001836020036101000a031916815260200191505b50868103825287818151815260200191508051906020019080838360005b83811015611d64578082015181840152602081019050611d49565b50505050905090810190601f168015611d915780820380516001836020036101000a031916815260200191505b509e50505050505050505050505050505060405180910390a1505050565b6000845111611e09576040517f08c379a00000000000000000000000000000000000000000000000000000000081526004018080602001828103825260238152602001806127d96023913960400191505060405180910390fd5b60008311611e62576040517f08c379a00000000000000000000000000000000000000000000000000000000081526004018080602001828103825260268152602001806127fc6026913960400191505060405180910390fd5b60016000815480929190600101919050555060405180610120016040528060015481526020018581526020018481526020018381526020018281526020013373ffffffffffffffffffffffffffffffffffffffff168152602001604051806020016040528060008152508152602001600073ffffffffffffffffffffffffffffffffffffffff16815260200160405180602001604052806000815250815250600260006001548152602001908152602001600020600082015181600001556020820151816001019080519060200190611f3c92919061270e565b50604082015181600201556060820151816003019080519060200190611f6392919061270e565b506080820151816004019080519060200190611f8092919061270e565b5060a08201518160050160006101000a81548173ffffffffffffffffffffffffffffffffffffffff021916908373ffffffffffffffffffffffffffffffffffffffff16021790555060c0820151816006019080519060200190611fe492919061270e565b5060e08201518160070160006101000a81548173ffffffffffffffffffffffffffffffffffffffff021916908373ffffffffffffffffffffffffffffffffffffffff16021790555061010082015181600801908051906020019061204992919061270e565b509050507f6a3ac54fc72f4b4168c9fc1deaf9dcb95c8040a7343947692ec2f24dfea7c64e60015485858585336000604051808881526020018060200187815260200180602001806020018673ffffffffffffffffffffffffffffffffffffffff1673ffffffffffffffffffffffffffffffffffffffff168152602001806020018673ffffffffffffffffffffffffffffffffffffffff1673ffffffffffffffffffffffffffffffffffffffff1681526020018060200186810386528c818151815260200191508051906020019080838360005b8381101561213857808201518184015260208101905061211d565b50505050905090810190601f1680156121655780820380516001836020036101000a031916815260200191505b5086810385528a818151815260200191508051906020019080838360005b8381101561219e578082015181840152602081019050612183565b50505050905090810190601f1680156121cb5780820380516001836020036101000a031916815260200191505b50868103845289818151815260200191508051906020019080838360005b838110156122045780820151818401526020810190506121e9565b50505050905090810190601f1680156122315780820380516001836020036101000a031916815260200191505b508681038352600081526020016020018681038252600081526020016020019c5050505050505050505050505060405180910390a150505050565b60008054600181600116156101000203166002900480601f0160208091040260200160405190810160405280929190818152602001828054600181600116156101000203166002900480156123025780601f106122d757610100808354040283529160200191612302565b820191906000526020600020905b8154815290600101906020018083116122e557829003601f168201915b505050505081565b60015481565b6002602052806000526040600020600091509050806000015490806001018054600181600116156101000203166002900480601f0160208091040260200160405190810160405280929190818152602001828054600181600116156101000203166002900480156123c25780601f10612397576101008083540402835291602001916123c2565b820191906000526020600020905b8154815290600101906020018083116123a557829003601f168201915b505050505090806002015490806003018054600181600116156101000203166002900480601f0160208091040260200160405190810160405280929190818152602001828054600181600116156101000203166002900480156124665780601f1061243b57610100808354040283529160200191612466565b820191906000526020600020905b81548152906001019060200180831161244957829003601f168201915b505050505090806004018054600181600116156101000203166002900480601f0160208091040260200160405190810160405280929190818152602001828054600181600116156101000203166002900480156125045780601f106124d957610100808354040283529160200191612504565b820191906000526020600020905b8154815290600101906020018083116124e757829003601f168201915b5050505050908060050160009054906101000a900473ffffffffffffffffffffffffffffffffffffffff1690806006018054600181600116156101000203166002900480601f0160208091040260200160405190810160405280929190818152602001828054600181600116156101000203166002900480156125c85780601f1061259d576101008083540402835291602001916125c8565b820191906000526020600020905b8154815290600101906020018083116125ab57829003601f168201915b5050505050908060070160009054906101000a900473ffffffffffffffffffffffffffffffffffffffff1690806008018054600181600116156101000203166002900480601f01602080910402602001604051908101604052809291908181526020018280546001816001161561010002031660029004801561268c5780601f106126615761010080835404028352916020019161268c565b820191906000526020600020905b81548152906001019060200180831161266f57829003601f168201915b5050505050905089565b6040518061012001604052806000815260200160608152602001600081526020016060815260200160608152602001600073ffffffffffffffffffffffffffffffffffffffff16815260200160608152602001600073ffffffffffffffffffffffffffffffffffffffff168152602001606081525090565b828054600181600116156101000203166002900490600052602060002090601f016020900481019282601f1061274f57805160ff191683800117855561277d565b8280016001018555821561277d579182015b8281111561277c578251825591602001919060010190612761565b5b50905061278a919061278e565b5090565b6127b091905b808211156127ac576000816000905550600101612794565b5090565b9056fe76616c7565206d7573742062652067726561746572207468616e206974656d70726963652e546865206e616d652073686f756c64206265206174206c65617374203120627974652e4974656d2070726963652073686f756c642062652067726561746572207468616e207a65726f20617474656d7074656420746f2074616d706572207769746820746865207072696365a265627a7a72315820e26433738557f7307d115823827e32de32b40f7181d2a2b8f35e949ae892ffa964736f6c634300050c0032",
  "source": "pragma solidity >=0.5.8;\r\n\r\n/**\r\n*This is a smart contract for storing pictures, their prices,\r\n*their buyers and sellers,as well as their descriptions.\r\n*The codes are based from the following\r\n*Title: How To Build A Blockchain App with Ethereum, Web3.js & Solidity Smart Contracts\r\n*Author: Gregory McCubbin\r\n*Date: 2019\r\n*Availability: https://www.dappuniversity.com/articles/how-to-build-a-blockchain-app\r\n */\r\ncontract ArtStore{\r\n    string public itemName;\r\n    uint public itemCount = 0;\r\n    mapping(uint => Item) public items;\r\n\r\n    constructor() public{\r\n        itemName = \"Property Store\";\r\n    }\r\n\r\n    //The data structure of the item\r\n    struct Item{\r\n        uint itemId; //Unique ID for the item\r\n        string itemName; //Name of the item\r\n        uint itemPrice; //Cost of the item\r\n        string itemDescription; //Short description of the item\r\n        string ipfsHash; //The IPFS Hash\r\n        address payable owner; //The owner of the item\r\n        string buyers; //List of those who have bought this item\r\n        address invader; //The user who attempts to tamper with the item\r\n        string notifMsg; //Check if a person tried to tamper with the item\r\n    }\r\n\r\n\r\n\r\n    /**\r\n    This is the function to add an item in blockchain.\r\n     */\r\n    function addItem(string memory _itemName, uint _itemPrice, string memory _itemDescription, string memory _ipfsHash) public{\r\n        //The name should be at least 1 byte\r\n        require(bytes(_itemName).length > 0,\"The name should be at least 1 byte.\");\r\n        //Item price should be greater than zero\r\n        require(_itemPrice > 0,\"Item price should be greater than zero\");\r\n        //Stock count should be greater than zero\r\n    \r\n        //This is for counting the item\r\n        itemCount++;\r\n        //Adding the item\r\n        items[itemCount] = Item(itemCount, _itemName, _itemPrice, _itemDescription, _ipfsHash, msg.sender, \"\", address(0), '');\r\n        //Triggering an event on item addition\r\n        emit ItemAdded(itemCount, _itemName, _itemPrice, _itemDescription, _ipfsHash, msg.sender, \"\", address(0), '');\r\n    }\r\n\r\n    /**\r\n    This event gives notification to the buyers that an item has been added to the blockchain\r\n     */\r\n    event ItemAdded(\r\n        uint itemId,\r\n        string itemName,\r\n        uint itemPrice,\r\n        string itemDescription,\r\n        string ipfsHash,\r\n        address payable owner,\r\n        string buyers,\r\n        address invader,\r\n        string notifMsg\r\n    );\r\n\r\n    function itemPurchase(uint _itemId) public payable{\r\n        Item memory _item = items[_itemId];\r\n        address payable _seller = _item.owner;\r\n        require(_item.itemId > 0 && _item.itemId <= itemCount, \"illigal index.\");\r\n        require(msg.value >= _item.itemPrice, \"value must be greater than itemprice.\");\r\n        //require(!_item.purchased,\"item is already purchased.\");\r\n        require(_seller != msg.sender,\"ownership is invalid.\");\r\n        _item.owner = msg.sender;\r\n        //This is for converting address to string\r\n        /**\r\n         *Title: Convert address to string\r\n         *Author: Anton Bukov, Aliaksandr Adzinets\r\n         *Date: 2018\r\n         *Availability: https://ethereum.stackexchange.com/questions/8346/convert-address-to-string/51484#51484\r\n         *Bukov, A. (2018). \r\n         *Convert address to string.\r\n         *[online] Ethereum Stack Exchange. \r\n         *Available at: https://ethereum.stackexchange.com/questions/8346/convert-address-to-string/51484#51484 \r\n         *[Accessed 14 Nov. 2019].\r\n         */\r\n         bytes32 value = bytes32(uint256(_seller));\r\n         bytes memory alphabet = \"0123456789abcdef\";\r\n\r\n         bytes memory str = new bytes(42);\r\n         str[0] = '0';\r\n         str[1] = 'x';\r\n         for (uint i = 0; i < 20; i++) {\r\n         str[2+i*2] = alphabet[uint(uint8(value[i + 12] >> 4))];\r\n         str[3+i*2] = alphabet[uint(uint8(value[i + 12] & 0x0f))];\r\n         }\r\n        _item.buyers = string(abi.encodePacked(_item.buyers,\" \",string(str)));\r\n        items[_itemId] = _item;\r\n        address(_seller).transfer(msg.value);\r\n        emit ItemPurchased(itemCount, _item.itemName, _item.itemPrice, _item.itemDescription, _item.ipfsHash, msg.sender, _item.buyers, address(0), \"\");\r\n    }\r\n\r\n    event ItemPurchased(\r\n        uint itemId,\r\n        string itemName,\r\n        uint itemPrice,\r\n        string itemDescription,\r\n        string ipfsHash,\r\n        address payable owner,\r\n        string buyers,\r\n        address invader,\r\n        string notifMsg\r\n    );\r\n\r\n    /**\r\n    This is the function to edit an item in blockchain.\r\n     */\r\n    function editItemCheck(uint _itemId) public{\r\n        Item memory _item = items[_itemId];\r\n        address payable _seller = _item.owner;\r\n        //Validating the sender\r\n        if(_seller != msg.sender){\r\n            _item.invader = msg.sender;\r\n            _item.notifMsg = \" attempted to tamper with the price\";\r\n        }\r\n        else{\r\n            _item.invader = address(0);\r\n            _item.notifMsg=\"Owner updated the price\";\r\n        }\r\n        //Updating the item\r\n        items[_itemId] = Item(_item.itemId, _item.itemName, _item.itemPrice, _item.itemDescription, _item.ipfsHash, _item.owner, _item.buyers, _item.invader, _item.notifMsg);\r\n        //Triggering an event on item addition\r\n        emit ItemEdited(_item.itemId, _item.itemName, _item.itemPrice, _item.itemDescription, _item.ipfsHash, _item.owner, _item.buyers, _item.invader, _item.notifMsg);\r\n    }\r\n\r\n        /**\r\n    This event gives notification to the buyers that an item has been added to the blockchain\r\n     */\r\n    event ItemEdited(\r\n        uint itemId,\r\n        string itemName,\r\n        uint itemPrice,\r\n        string itemDescription,\r\n        string ipfsHash,\r\n        address payable owner,\r\n        string buyers,\r\n        address invader,\r\n        string notifMsg\r\n    );\r\n}",
  "sourcePath": "D:/MACS/Fall-2019/DistributedSystemsDesign/projects/Blockchain_DSProject/Blockchain-Shop/marketplace/src/contracts/ArtStore.sol",
  "compiler": {
    "name": "solc",
    "version": "0.5.12+commit.7709ece9.Emscripten.clang"
  },
  "schemaVersion": "3.0.18",
  "updatedAt": "2019-11-16T23:58:18.461Z",
  "networkType": "ethereum",
  "devdoc": {
    "methods": {}
  },
  "userdoc": {
    "methods": {
      "addItem(string,uint256,string,string)": {
        "notice": "This is the function to add an item in blockchain."
      },
      "editItemCheck(uint256)": {
        "notice": "This is the function to edit an item in blockchain."
      }
    },
    "notice": "his is a smart contract for storing pictures, their prices, heir buyers and sellers,as well as their descriptions. he codes are based from the following itle: How To Build A Blockchain App with Ethereum, Web3.js & Solidity Smart Contracts uthor: Gregory McCubbin ate: 2019 vailability: https://www.dappuniversity.com/articles/how-to-build-a-blockchain-app"
  }
}